{
  "_format": "hh-sol-artifact-1",
  "contractName": "NFTMarket",
  "sourceName": "contracts/Market.sol",
  "abi": [
    {
      "inputs": [],
      "stateMutability": "nonpayable",
      "type": "constructor"
    },
    {
      "anonymous": false,
      "inputs": [
        {
          "indexed": true,
          "internalType": "uint256",
          "name": "itemId",
          "type": "uint256"
        },
        {
          "indexed": true,
          "internalType": "address",
          "name": "nftContract",
          "type": "address"
        },
        {
          "indexed": true,
          "internalType": "uint256",
          "name": "tokenId",
          "type": "uint256"
        },
        {
          "indexed": false,
          "internalType": "address",
          "name": "seller",
          "type": "address"
        },
        {
          "indexed": false,
          "internalType": "uint256",
          "name": "price",
          "type": "uint256"
        }
      ],
      "name": "MarketItemCreated",
      "type": "event"
    },
    {
      "inputs": [
        {
          "internalType": "uint256",
          "name": "page",
          "type": "uint256"
        },
        {
          "internalType": "uint256",
          "name": "limit",
          "type": "uint256"
        },
        {
          "internalType": "int256",
          "name": "SortType",
          "type": "int256"
        },
        {
          "internalType": "address",
          "name": "nftContract",
          "type": "address"
        }
      ],
      "name": "GetCollectionOnSaleItems",
      "outputs": [
        {
          "components": [
            {
              "internalType": "uint256",
              "name": "itemId",
              "type": "uint256"
            },
            {
              "internalType": "address",
              "name": "nftContract",
              "type": "address"
            },
            {
              "internalType": "uint256",
              "name": "tokenId",
              "type": "uint256"
            },
            {
              "internalType": "address payable",
              "name": "seller",
              "type": "address"
            },
            {
              "internalType": "uint256",
              "name": "price",
              "type": "uint256"
            }
          ],
          "internalType": "struct NFTMarket.MarketItem[]",
          "name": "",
          "type": "tuple[]"
        }
      ],
      "stateMutability": "view",
      "type": "function"
    },
    {
      "inputs": [
        {
          "internalType": "uint256",
          "name": "itemId",
          "type": "uint256"
        }
      ],
      "name": "GetMarketItemById",
      "outputs": [
        {
          "components": [
            {
              "internalType": "uint256",
              "name": "itemId",
              "type": "uint256"
            },
            {
              "internalType": "address",
              "name": "nftContract",
              "type": "address"
            },
            {
              "internalType": "uint256",
              "name": "tokenId",
              "type": "uint256"
            },
            {
              "internalType": "address payable",
              "name": "seller",
              "type": "address"
            },
            {
              "internalType": "uint256",
              "name": "price",
              "type": "uint256"
            }
          ],
          "internalType": "struct NFTMarket.MarketItem[]",
          "name": "",
          "type": "tuple[]"
        }
      ],
      "stateMutability": "view",
      "type": "function"
    },
    {
      "inputs": [
        {
          "internalType": "string",
          "name": "query",
          "type": "string"
        },
        {
          "internalType": "uint256",
          "name": "page",
          "type": "uint256"
        },
        {
          "internalType": "uint256",
          "name": "limit",
          "type": "uint256"
        },
        {
          "internalType": "int256",
          "name": "SortType",
          "type": "int256"
        }
      ],
      "name": "GetMarketItems",
      "outputs": [
        {
          "components": [
            {
              "internalType": "uint256",
              "name": "itemId",
              "type": "uint256"
            },
            {
              "internalType": "address",
              "name": "nftContract",
              "type": "address"
            },
            {
              "internalType": "uint256",
              "name": "tokenId",
              "type": "uint256"
            },
            {
              "internalType": "address payable",
              "name": "seller",
              "type": "address"
            },
            {
              "internalType": "uint256",
              "name": "price",
              "type": "uint256"
            }
          ],
          "internalType": "struct NFTMarket.MarketItem[]",
          "name": "",
          "type": "tuple[]"
        }
      ],
      "stateMutability": "view",
      "type": "function"
    },
    {
      "inputs": [
        {
          "internalType": "uint256",
          "name": "page",
          "type": "uint256"
        },
        {
          "internalType": "uint256",
          "name": "limit",
          "type": "uint256"
        },
        {
          "internalType": "int256",
          "name": "SortType",
          "type": "int256"
        },
        {
          "internalType": "address",
          "name": "user",
          "type": "address"
        }
      ],
      "name": "GetUserOnSaleItems",
      "outputs": [
        {
          "components": [
            {
              "internalType": "uint256",
              "name": "itemId",
              "type": "uint256"
            },
            {
              "internalType": "address",
              "name": "nftContract",
              "type": "address"
            },
            {
              "internalType": "uint256",
              "name": "tokenId",
              "type": "uint256"
            },
            {
              "internalType": "address payable",
              "name": "seller",
              "type": "address"
            },
            {
              "internalType": "uint256",
              "name": "price",
              "type": "uint256"
            }
          ],
          "internalType": "struct NFTMarket.MarketItem[]",
          "name": "",
          "type": "tuple[]"
        }
      ],
      "stateMutability": "view",
      "type": "function"
    },
    {
      "inputs": [],
      "name": "cancelAllSales",
      "outputs": [],
      "stateMutability": "payable",
      "type": "function"
    },
    {
      "inputs": [
        {
          "internalType": "uint256",
          "name": "itemId",
          "type": "uint256"
        }
      ],
      "name": "cancelMarketSale",
      "outputs": [],
      "stateMutability": "payable",
      "type": "function"
    },
    {
      "inputs": [
        {
          "internalType": "address",
          "name": "nftContract",
          "type": "address"
        },
        {
          "internalType": "uint256",
          "name": "tokenId",
          "type": "uint256"
        },
        {
          "internalType": "uint256",
          "name": "initialPrice",
          "type": "uint256"
        }
      ],
      "name": "createMarketItem",
      "outputs": [],
      "stateMutability": "payable",
      "type": "function"
    },
    {
      "inputs": [
        {
          "internalType": "uint256",
          "name": "itemId",
          "type": "uint256"
        }
      ],
      "name": "createMarketSale",
      "outputs": [],
      "stateMutability": "payable",
      "type": "function"
    },
    {
      "inputs": [],
      "name": "getListingPrice",
      "outputs": [
        {
          "internalType": "uint256",
          "name": "",
          "type": "uint256"
        }
      ],
      "stateMutability": "view",
      "type": "function"
    },
    {
      "inputs": [
        {
          "internalType": "uint256",
          "name": "itemId",
          "type": "uint256"
        }
      ],
      "name": "hardCancel",
      "outputs": [],
      "stateMutability": "payable",
      "type": "function"
    }
  ],
  "bytecode": "0x6080604052620f424060045534801561001757600080fd5b506001600055600380546001600160a01b031916331790556121fa8061003e6000396000f3fe6080604052600436106100915760003560e01c8063a8552bb711610059578063a8552bb714610123578063b620ee9814610143578063be9af53614610163578063cfd825a214610176578063d455f5551461018957600080fd5b806312e85585146100965780632cd2391d146100b9578063473c5af0146100e657806358eb2df5146100f057806397fea60014610103575b600080fd5b3480156100a257600080fd5b506004546040519081526020015b60405180910390f35b3480156100c557600080fd5b506100d96100d4366004611fa2565b61019c565b6040516100b09190612004565b6100ee61067e565b005b6100ee6100fe366004611e96565b6107d7565b34801561010f57600080fd5b506100d961011e366004611fa2565b6109f2565b34801561012f57600080fd5b506100d961013e366004611f8a565b610ebd565b34801561014f57600080fd5b506100d961015e366004611ec8565b610f7e565b6100ee610171366004611f8a565b6112ab565b6100ee610184366004611f8a565b6116c1565b6100ee610197366004611f8a565b611ab7565b606060006101a960015490565b905060008060005b83811015610215576001600160a01b038616600260006101d28460016120f8565b81526020810191909152604001600020600101546001600160a01b03161415610203576102006001846120f8565b92505b8061020d8161217d565b9150506101b1565b5060008267ffffffffffffffff81111561023f57634e487b7160e01b600052604160045260246000fd5b604051908082528060200260200182016040528015610268578160200160208202803683370190505b50905060005b84811015610312576001600160a01b0387166002600061028f8460016120f8565b81526020810191909152604001600020600101546001600160a01b0316141561030057600260006102c18360016120f8565b8152602001908152602001600020600001548282815181106102f357634e487b7160e01b600052603260045260246000fd5b6020026020010181815250505b8061030a8161217d565b91505061026e565b50600061031f8985612110565b9050808a10156104a95760008967ffffffffffffffff81111561035257634e487b7160e01b600052604160045260246000fd5b60405190808252806020026020018201604052801561038b57816020015b610378611e39565b8152602001906001900390816103705790505b509050600061039a8b8d612130565b90505b8a6103a8818e612130565b6103b291906120f8565b811080156103bf57508581105b1561049b5760008482815181106103e657634e487b7160e01b600052603260045260246000fd5b60209081029190910181015160008181526002808452604091829020825160a0810184528154815260018201546001600160a01b0390811696820196909652918101549282019290925260038201549093166060840152600481015460808401528551919350919085908990811061046e57634e487b7160e01b600052603260045260246000fd5b60209081029190910101526104846001886120f8565b9650505080806104939061217d565b91505061039d565b509550610676945050505050565b808a11156104f15760408051600080825260208201909252816104e2565b6104cf611e39565b8152602001906001900390816104c75790505b50965061067695505050505050565b60006104fd828b612130565b610507908661214f565b67ffffffffffffffff81111561052d57634e487b7160e01b600052604160045260246000fd5b60405190808252806020026020018201604052801561056657816020015b610553611e39565b81526020019060019003908161054b5790505b50905060006105758b8d612130565b90505b8a610583818e612130565b61058d91906120f8565b8110801561059a57508581105b1561049b5760008482815181106105c157634e487b7160e01b600052603260045260246000fd5b60209081029190910181015160008181526002808452604091829020825160a0810184528154815260018201546001600160a01b0390811696820196909652918101549282019290925260038201549093166060840152600481015460808401528551919350919085908990811061064957634e487b7160e01b600052603260045260246000fd5b602090810291909101015261065f6001886120f8565b96505050808061066e9061217d565b915050610578565b949350505050565b600260005414156106aa5760405162461bcd60e51b81526004016106a1906120c1565b60405180910390fd5b60026000556003546001600160a01b031633146106d95760405162461bcd60e51b81526004016106a190612080565b60006106e460015490565b9050805b80156107ce57600081815260026020819052604091829020600181015491015491516323b872dd60e01b81526001600160a01b03909116916323b872dd91610737913091339190600401611fe0565b600060405180830381600087803b15801561075157600080fd5b505af1158015610765573d6000803e3d6000fd5b5050506000828152600260205260408082206003015460045491516001600160a01b03909116935081156108fc0292818181858888f193505050501580156107b1573d6000803e3d6000fd5b506107bc6001611de2565b806107c681612166565b9150506106e8565b50506001600055565b600260005414156107fa5760405162461bcd60e51b81526004016106a1906120c1565b60026000558061084c5760405162461bcd60e51b815260206004820152601c60248201527f5072696365206d757374206265206174206c656173742031207765690000000060448201526064016106a1565b60045434146108a95760405162461bcd60e51b8152602060048201526024808201527f5072696365206d75737420626520657175616c20746f206c697374696e6720706044820152637269636560e01b60648201526084016106a1565b6108b7600180546001019055565b60006108c260015490565b6040805160a0810182528281526001600160a01b0380881660208084018281528486018a81523360608701818152608088018c815260008b81526002968790528a90209851895593516001890180549189166001600160a01b0319928316179055925194880194909455925160038701805491909616911617909355915160049384015592516323b872dd60e01b815293945091926323b872dd9261096d9290913091899101611fe0565b600060405180830381600087803b15801561098757600080fd5b505af115801561099b573d6000803e3d6000fd5b505060408051338152602081018690528693506001600160a01b038816925084917f6c768f237d15b0eedb46b2f49918dc5109839c2d232c382d377c40fabeeec92d910160405180910390a4505060016000555050565b606060006109ff60015490565b905060008060005b83811015610a6b576001600160a01b03861660026000610a288460016120f8565b81526020810191909152604001600020600301546001600160a01b03161415610a5957610a566001846120f8565b92505b80610a638161217d565b915050610a07565b5060008267ffffffffffffffff811115610a9557634e487b7160e01b600052604160045260246000fd5b604051908082528060200260200182016040528015610abe578160200160208202803683370190505b50905060005b84811015610b68576001600160a01b03871660026000610ae58460016120f8565b81526020810191909152604001600020600301546001600160a01b03161415610b565760026000610b178360016120f8565b815260200190815260200160002060000154828281518110610b4957634e487b7160e01b600052603260045260246000fd5b6020026020010181815250505b80610b608161217d565b915050610ac4565b506000610b758985612110565b9050808a1015610cf15760008967ffffffffffffffff811115610ba857634e487b7160e01b600052604160045260246000fd5b604051908082528060200260200182016040528015610be157816020015b610bce611e39565b815260200190600190039081610bc65790505b5090506000610bf08b8d612130565b90505b8a610bfe818e612130565b610c0891906120f8565b81108015610c1557508581105b1561049b576000848281518110610c3c57634e487b7160e01b600052603260045260246000fd5b60209081029190910181015160008181526002808452604091829020825160a0810184528154815260018201546001600160a01b03908116968201969096529181015492820192909252600382015490931660608401526004810154608084015285519193509190859089908110610cc457634e487b7160e01b600052603260045260246000fd5b6020908102919091010152610cda6001886120f8565b965050508080610ce99061217d565b915050610bf3565b808a1115610d385760408051600080825260208201909252816104e2565b610d17611e39565b815260200190600190039081610d0f57905050965061067695505050505050565b6000610d44828b612130565b610d4e908661214f565b67ffffffffffffffff811115610d7457634e487b7160e01b600052604160045260246000fd5b604051908082528060200260200182016040528015610dad57816020015b610d9a611e39565b815260200190600190039081610d925790505b5090506000610dbc8b8d612130565b90505b8a610dca818e612130565b610dd491906120f8565b81108015610de157508581105b1561049b576000848281518110610e0857634e487b7160e01b600052603260045260246000fd5b60209081029190910181015160008181526002808452604091829020825160a0810184528154815260018201546001600160a01b03908116968201969096529181015492820192909252600382015490931660608401526004810154608084015285519193509190859089908110610e9057634e487b7160e01b600052603260045260246000fd5b6020908102919091010152610ea66001886120f8565b965050508080610eb59061217d565b915050610dbf565b60408051600180825281830190925260609160009190816020015b610ee0611e39565b815260200190600190039081610ed85750506000848152600260208181526040808420815160a0810183528154815260018201546001600160a01b03908116948201949094529381015491840191909152600381015490911660608301526004810154608083015283519394509290918491610f6c57634e487b7160e01b600052603260045260246000fd5b60209081029190910101525092915050565b60606000610f8b60015490565b9050600080610f9a8684612110565b9050808710156111015760008667ffffffffffffffff811115610fcd57634e487b7160e01b600052604160045260246000fd5b60405190808252806020026020018201604052801561100657816020015b610ff3611e39565b815260200190600190039081610feb5790505b5090506000611015888a612130565b90505b87611023818b612130565b61102d91906120f8565b8110801561103a57508481105b156110f557600061104c8260016120f8565b600081815260026020818152604092839020835160a0810185528154815260018201546001600160a01b03908116938201939093529281015493830193909352600383015416606082015260048201546080820152855192935090918590889081106110c857634e487b7160e01b600052603260045260246000fd5b60209081029190910101526110de6001876120f8565b9550505080806110ed9061217d565b915050611018565b50935061067692505050565b8087111561114757604080516000808252602082019092528161113a565b611127611e39565b81526020019060019003908161111f5790505b5094506106769350505050565b60006111538288612130565b61115d908561214f565b67ffffffffffffffff81111561118357634e487b7160e01b600052604160045260246000fd5b6040519080825280602002602001820160405280156111bc57816020015b6111a9611e39565b8152602001906001900390816111a15790505b50905060006111cb888a612130565b90505b876111d9818b612130565b6111e391906120f8565b811080156111f057508481105b156110f55760006112028260016120f8565b600081815260026020818152604092839020835160a0810185528154815260018201546001600160a01b039081169382019390935292810154938301939093526003830154166060820152600482015460808201528551929350909185908890811061127e57634e487b7160e01b600052603260045260246000fd5b60209081029190910101526112946001876120f8565b9550505080806112a39061217d565b9150506111ce565b600260005414156112ce5760405162461bcd60e51b81526004016106a1906120c1565b6002600081815582815260209190915260409020600401543481111561135e576040805162461bcd60e51b81526020600482015260248101919091527f506c65617365207375626d6974207468652061736b696e67207072696365206960448201527f6e206f7264657220746f20636f6d706c6574652074686520707572636861736560648201526084016106a1565b6000828152600260208190526040808320918201546001830154600390930154915190936001600160a01b039384169392909216913480156108fc02929091818181858888f193505050501580156113ba573d6000803e3d6000fd5b506040516323b872dd60e01b81526001600160a01b038216906323b872dd906113eb90309033908790600401611fe0565b600060405180830381600087803b15801561140557600080fd5b505af1158015611419573d6000803e3d6000fd5b5086925050505b60015481101561166e57600081815260026020819052604082206001808201548284015460038401546004909401546001600160a01b0392831696919592909416939261146e9088906120f8565b815260208082019290925260409081016000908120600190810154898352600294859052928220810180546001600160a01b0319166001600160a01b0390941693909317909255906114c19088906120f8565b8152602001908152602001600020600201546002600087815260200190815260200160002060020181905550600260008660016114fe91906120f8565b8152602080820192909252604090810160009081206003908101548983526002948590529282200180546001600160a01b0319166001600160a01b039093169290921790915561154f8760016120f8565b8152602001908152602001600020600401546002600087815260200190815260200160002060040181905550836002600087600161158d91906120f8565b815260200190815260200160002060010160006101000a8154816001600160a01b0302191690836001600160a01b0316021790555082600260008760016115d491906120f8565b81526020019081526020016000206002018190555081600260008760016115fb91906120f8565b815260200190815260200160002060030160006101000a8154816001600160a01b0302191690836001600160a01b03160217905550806002600087600161164291906120f8565b8152602001908152602001600020600401819055505050505080806116669061217d565b915050611420565b506116796001611de2565b6003546004546040516001600160a01b039092169181156108fc0291906000818181858888f193505050501580156116b5573d6000803e3d6000fd5b50506001600055505050565b600260005414156116e45760405162461bcd60e51b81526004016106a1906120c1565b6002600081815582815260209190915260409020600301546001600160a01b0316331461178c5760405162461bcd60e51b815260206004820152604a60248201527f49742069736e277420796f7572206974656d2e20506c656173652c20646f6e2760448201527f742074727920746f20646f206974206f722077652077696c6c2062616e2074686064820152696973206164647265737360b01b608482015260a4016106a1565b60008181526002602081905260409182902090810154600182015460039092015492516323b872dd60e01b815290926001600160a01b039283169283926323b872dd926117e29230929116908790600401611fe0565b600060405180830381600087803b1580156117fc57600080fd5b505af1158015611810573d6000803e3d6000fd5b5085925050505b600154811015611a6557600081815260026020819052604082206001808201548284015460038401546004909401546001600160a01b039283169691959290941693926118659088906120f8565b815260208082019290925260409081016000908120600190810154898352600294859052928220810180546001600160a01b0319166001600160a01b0390941693909317909255906118b89088906120f8565b8152602001908152602001600020600201546002600087815260200190815260200160002060020181905550600260008660016118f591906120f8565b8152602080820192909252604090810160009081206003908101548983526002948590529282200180546001600160a01b0319166001600160a01b03909316929092179091556119468760016120f8565b8152602001908152602001600020600401546002600087815260200190815260200160002060040181905550836002600087600161198491906120f8565b815260200190815260200160002060010160006101000a8154816001600160a01b0302191690836001600160a01b0316021790555082600260008760016119cb91906120f8565b81526020019081526020016000206002018190555081600260008760016119f291906120f8565b815260200190815260200160002060030160006101000a8154816001600160a01b0302191690836001600160a01b031602179055508060026000876001611a3991906120f8565b815260200190815260200160002060040181905550505050508080611a5d9061217d565b915050611817565b50611a706001611de2565b6003546004546040516001600160a01b039092169181156108fc0291906000818181858888f19350505050158015611aac573d6000803e3d6000fd5b505060016000555050565b60026000541415611ada5760405162461bcd60e51b81526004016106a1906120c1565b60026000556003546001600160a01b03163314611b095760405162461bcd60e51b81526004016106a190612080565b60008181526002602081905260409182902090810154600182015460039092015492516323b872dd60e01b815290926001600160a01b039283169283926323b872dd92611b5f9230929116908790600401611fe0565b600060405180830381600087803b158015611b7957600080fd5b505af1158015611b8d573d6000803e3d6000fd5b5085925050505b600154811015611a6557600081815260026020819052604082206001808201548284015460038401546004909401546001600160a01b03928316969195929094169392611be29088906120f8565b815260208082019290925260409081016000908120600190810154898352600294859052928220810180546001600160a01b0319166001600160a01b039094169390931790925590611c359088906120f8565b815260200190815260200160002060020154600260008781526020019081526020016000206002018190555060026000866001611c7291906120f8565b8152602080820192909252604090810160009081206003908101548983526002948590529282200180546001600160a01b0319166001600160a01b0390931692909217909155611cc38760016120f8565b81526020019081526020016000206004015460026000878152602001908152602001600020600401819055508360026000876001611d0191906120f8565b815260200190815260200160002060010160006101000a8154816001600160a01b0302191690836001600160a01b031602179055508260026000876001611d4891906120f8565b8152602001908152602001600020600201819055508160026000876001611d6f91906120f8565b815260200190815260200160002060030160006101000a8154816001600160a01b0302191690836001600160a01b031602179055508060026000876001611db691906120f8565b815260200190815260200160002060040181905550505050508080611dda9061217d565b915050611b94565b805480611e315760405162461bcd60e51b815260206004820152601b60248201527f436f756e7465723a2064656372656d656e74206f766572666c6f77000000000060448201526064016106a1565b600019019055565b6040518060a001604052806000815260200160006001600160a01b031681526020016000815260200160006001600160a01b03168152602001600081525090565b80356001600160a01b0381168114611e9157600080fd5b919050565b600080600060608486031215611eaa578283fd5b611eb384611e7a565b95602085013595506040909401359392505050565b60008060008060808587031215611edd578081fd5b843567ffffffffffffffff80821115611ef4578283fd5b818701915087601f830112611f07578283fd5b813581811115611f1957611f196121ae565b604051601f8201601f19908116603f01168101908382118183101715611f4157611f416121ae565b816040528281528a6020848701011115611f59578586fd5b8260208601602083013791820160209081019590955250989287013597505050604085013594606001359350915050565b600060208284031215611f9b578081fd5b5035919050565b60008060008060808587031215611fb7578384fd5b843593506020850135925060408501359150611fd560608601611e7a565b905092959194509250565b6001600160a01b039384168152919092166020820152604081019190915260600190565b602080825282518282018190526000919060409081850190868401855b8281101561207357815180518552868101516001600160a01b03908116888701528682015187870152606080830151909116908601526080908101519085015260a09093019290850190600101612021565b5091979650505050505050565b60208082526021908201527f506c6561736520646f6e27742074727920746f20646f207468697320616761696040820152603760f91b606082015260800190565b6020808252601f908201527f5265656e7472616e637947756172643a207265656e7472616e742063616c6c00604082015260600190565b6000821982111561210b5761210b612198565b500190565b60008261212b57634e487b7160e01b81526012600452602481fd5b500490565b600081600019048311821515161561214a5761214a612198565b500290565b60008282101561216157612161612198565b500390565b60008161217557612175612198565b506000190190565b600060001982141561219157612191612198565b5060010190565b634e487b7160e01b600052601160045260246000fd5b634e487b7160e01b600052604160045260246000fdfea2646970667358221220214331590f618eb6334c55488b0a8fb8a1809caaacc85e260b71041ce1409df464736f6c63430008040033",
  "linkReferences": {},
  "deployedLinkReferences": {}
}