{
  "_format": "hh-sol-artifact-1",
  "contractName": "NFTMarket",
  "sourceName": "contracts/Market.sol",
  "abi": [
    {
      "inputs": [],
      "stateMutability": "nonpayable",
      "type": "constructor"
    },
    {
      "anonymous": false,
      "inputs": [
        {
          "indexed": true,
          "internalType": "uint256",
          "name": "itemId",
          "type": "uint256"
        },
        {
          "indexed": true,
          "internalType": "address",
          "name": "nftContract",
          "type": "address"
        },
        {
          "indexed": true,
          "internalType": "uint256",
          "name": "tokenId",
          "type": "uint256"
        },
        {
          "indexed": false,
          "internalType": "address",
          "name": "seller",
          "type": "address"
        },
        {
          "indexed": false,
          "internalType": "uint256",
          "name": "price",
          "type": "uint256"
        }
      ],
      "name": "MarketItemCreated",
      "type": "event"
    },
    {
      "inputs": [
        {
          "internalType": "string",
          "name": "query",
          "type": "string"
        },
        {
          "internalType": "uint256",
          "name": "page",
          "type": "uint256"
        },
        {
          "internalType": "uint256",
          "name": "limit",
          "type": "uint256"
        },
        {
          "internalType": "int256",
          "name": "SortType",
          "type": "int256"
        }
      ],
      "name": "GetMarketItems",
      "outputs": [
        {
          "components": [
            {
              "internalType": "uint256",
              "name": "itemId",
              "type": "uint256"
            },
            {
              "internalType": "address",
              "name": "nftContract",
              "type": "address"
            },
            {
              "internalType": "uint256",
              "name": "tokenId",
              "type": "uint256"
            },
            {
              "internalType": "address payable",
              "name": "seller",
              "type": "address"
            },
            {
              "internalType": "uint256",
              "name": "price",
              "type": "uint256"
            }
          ],
          "internalType": "struct NFTMarket.MarketItem[]",
          "name": "",
          "type": "tuple[]"
        }
      ],
      "stateMutability": "view",
      "type": "function"
    },
    {
      "inputs": [
        {
          "internalType": "uint256",
          "name": "page",
          "type": "uint256"
        },
        {
          "internalType": "uint256",
          "name": "limit",
          "type": "uint256"
        },
        {
          "internalType": "int256",
          "name": "SortType",
          "type": "int256"
        }
      ],
      "name": "GetOnSaleItems",
      "outputs": [
        {
          "components": [
            {
              "internalType": "uint256",
              "name": "itemId",
              "type": "uint256"
            },
            {
              "internalType": "address",
              "name": "nftContract",
              "type": "address"
            },
            {
              "internalType": "uint256",
              "name": "tokenId",
              "type": "uint256"
            },
            {
              "internalType": "address payable",
              "name": "seller",
              "type": "address"
            },
            {
              "internalType": "uint256",
              "name": "price",
              "type": "uint256"
            }
          ],
          "internalType": "struct NFTMarket.MarketItem[]",
          "name": "",
          "type": "tuple[]"
        }
      ],
      "stateMutability": "view",
      "type": "function"
    },
    {
      "inputs": [
        {
          "internalType": "address",
          "name": "nftContract",
          "type": "address"
        },
        {
          "internalType": "uint256",
          "name": "itemId",
          "type": "uint256"
        }
      ],
      "name": "cancelMarketSale",
      "outputs": [],
      "stateMutability": "payable",
      "type": "function"
    },
    {
      "inputs": [
        {
          "internalType": "address",
          "name": "nftContract",
          "type": "address"
        },
        {
          "internalType": "uint256",
          "name": "tokenId",
          "type": "uint256"
        },
        {
          "internalType": "uint256",
          "name": "initialPrice",
          "type": "uint256"
        }
      ],
      "name": "createMarketItem",
      "outputs": [],
      "stateMutability": "payable",
      "type": "function"
    },
    {
      "inputs": [
        {
          "internalType": "address",
          "name": "nftContract",
          "type": "address"
        },
        {
          "internalType": "uint256",
          "name": "itemId",
          "type": "uint256"
        }
      ],
      "name": "createMarketSale",
      "outputs": [],
      "stateMutability": "payable",
      "type": "function"
    },
    {
      "inputs": [],
      "name": "getListingPrice",
      "outputs": [
        {
          "internalType": "uint256",
          "name": "",
          "type": "uint256"
        }
      ],
      "stateMutability": "view",
      "type": "function"
    }
  ],
  "bytecode": "0x6080604052620f424060045534801561001757600080fd5b506001600055600380546001600160a01b031916331790556116c28061003e6000396000f3fe6080604052600436106100555760003560e01c806312e855851461005a5780631dd9cf861461007d5780632b5484911461009257806358eb2df5146100bf578063b620ee98146100d2578063c23b139e146100f2575b600080fd5b34801561006657600080fd5b506004546040519081526020015b60405180910390f35b61009061008b3660046113dc565b610105565b005b34801561009e57600080fd5b506100b26100ad3660046114f9565b6104fd565b6040516100749190611524565b6100906100cd366004611405565b6109cc565b3480156100de57600080fd5b506100b26100ed366004611437565b610bea565b6100906101003660046113dc565b610f1f565b600260005414156101315760405162461bcd60e51b8152600401610128906115a0565b60405180910390fd5b60026000818155828152602082905260409020908101546003909101546001600160a01b031633146101de5760405162461bcd60e51b815260206004820152604a60248201527f49742069736e277420796f7572206974656d2e20506c656173652c20646f6e2760448201527f742074727920746f20646f206974206f722077652077696c6c2062616e2074686064820152696973206164647265737360b01b608482015260a401610128565b600082815260026020526040908190206003015490516323b872dd60e01b81523060048201526001600160a01b03918216602482015260448101839052908416906323b872dd90606401600060405180830381600087803b15801561024257600080fd5b505af1158015610256573d6000803e3d6000fd5b5083925050505b6001548110156104ab57600081815260026020819052604082206001808201548284015460038401546004909401546001600160a01b039283169691959290941693926102ab9088906115d7565b815260208082019290925260409081016000908120600190810154898352600294859052928220810180546001600160a01b0319166001600160a01b0390941693909317909255906102fe9088906115d7565b81526020019081526020016000206002015460026000878152602001908152602001600020600201819055506002600086600161033b91906115d7565b8152602080820192909252604090810160009081206003908101548983526002948590529282200180546001600160a01b0319166001600160a01b039093169290921790915561038c8760016115d7565b815260200190815260200160002060040154600260008781526020019081526020016000206004018190555083600260008760016103ca91906115d7565b815260200190815260200160002060010160006101000a8154816001600160a01b0302191690836001600160a01b03160217905550826002600087600161041191906115d7565b815260200190815260200160002060020181905550816002600087600161043891906115d7565b815260200190815260200160002060030160006101000a8154816001600160a01b0302191690836001600160a01b03160217905550806002600087600161047f91906115d7565b8152602001908152602001600020600401819055505050505080806104a390611645565b91505061025d565b506104b66001611328565b6003546004546040516001600160a01b039092169181156108fc0291906000818181858888f193505050501580156104f2573d6000803e3d6000fd5b505060016000555050565b6060600061050a60015490565b905060008060005b8381101561056d57336002600061052a8460016115d7565b81526020810191909152604001600020600301546001600160a01b0316141561055b576105586001846115d7565b92505b8061056581611645565b915050610512565b5060008267ffffffffffffffff81111561059757634e487b7160e01b600052604160045260246000fd5b6040519080825280602002602001820160405280156105c0578160200160208202803683370190505b50905060005b848110156106615733600260006105de8460016115d7565b81526020810191909152604001600020600301546001600160a01b0316141561064f57600260006106108360016115d7565b81526020019081526020016000206000015482828151811061064257634e487b7160e01b600052603260045260246000fd5b6020026020010181815250505b8061065981611645565b9150506105c6565b50600061066e88856115ef565b9050808910156107f85760008867ffffffffffffffff8111156106a157634e487b7160e01b600052604160045260246000fd5b6040519080825280602002602001820160405280156106da57816020015b6106c761137f565b8152602001906001900390816106bf5790505b50905060006106e98a8c61160f565b90505b896106f7818d61160f565b61070191906115d7565b8110801561070e57508581105b156107ea57600084828151811061073557634e487b7160e01b600052603260045260246000fd5b60209081029190910181015160008181526002808452604091829020825160a0810184528154815260018201546001600160a01b039081169682019690965291810154928201929092526003820154909316606084015260048101546080840152855191935091908590899081106107bd57634e487b7160e01b600052603260045260246000fd5b60209081029190910101526107d36001886115d7565b9650505080806107e290611645565b9150506106ec565b5095506109c5945050505050565b80891115610840576040805160008082526020820190925281610831565b61081e61137f565b8152602001906001900390816108165790505b5096506109c595505050505050565b600061084c828a61160f565b610856908661162e565b67ffffffffffffffff81111561087c57634e487b7160e01b600052604160045260246000fd5b6040519080825280602002602001820160405280156108b557816020015b6108a261137f565b81526020019060019003908161089a5790505b50905060006108c48a8c61160f565b90505b896108d2818d61160f565b6108dc91906115d7565b811080156108e957508581105b156107ea57600084828151811061091057634e487b7160e01b600052603260045260246000fd5b60209081029190910181015160008181526002808452604091829020825160a0810184528154815260018201546001600160a01b0390811696820196909652918101549282019290925260038201549093166060840152600481015460808401528551919350919085908990811061099857634e487b7160e01b600052603260045260246000fd5b60209081029190910101526109ae6001886115d7565b9650505080806109bd90611645565b9150506108c7565b9392505050565b600260005414156109ef5760405162461bcd60e51b8152600401610128906115a0565b600260005580610a415760405162461bcd60e51b815260206004820152601c60248201527f5072696365206d757374206265206174206c65617374203120776569000000006044820152606401610128565b6004543414610a9e5760405162461bcd60e51b8152602060048201526024808201527f5072696365206d75737420626520657175616c20746f206c697374696e6720706044820152637269636560e01b6064820152608401610128565b610aac600180546001019055565b6000610ab760015490565b6040805160a0810182528281526001600160a01b0387811660208084018281528486018a81523360608701818152608088018c815260008b81526002968790528a90209851895593516001890180549189166001600160a01b0319928316179055925194880194909455925160038701805491909616911617909355915160049384015592516323b872dd60e01b81529182015230602482015260448101869052919250906323b872dd90606401600060405180830381600087803b158015610b7f57600080fd5b505af1158015610b93573d6000803e3d6000fd5b505060408051338152602081018690528693506001600160a01b038816925084917f6c768f237d15b0eedb46b2f49918dc5109839c2d232c382d377c40fabeeec92d910160405180910390a4505060016000555050565b60606000610bf760015490565b9050600080610c0686846115ef565b905080871015610d6d5760008667ffffffffffffffff811115610c3957634e487b7160e01b600052604160045260246000fd5b604051908082528060200260200182016040528015610c7257816020015b610c5f61137f565b815260200190600190039081610c575790505b5090506000610c81888a61160f565b90505b87610c8f818b61160f565b610c9991906115d7565b81108015610ca657508481105b15610d61576000610cb88260016115d7565b600081815260026020818152604092839020835160a0810185528154815260018201546001600160a01b0390811693820193909352928101549383019390935260038301541660608201526004820154608082015285519293509091859088908110610d3457634e487b7160e01b600052603260045260246000fd5b6020908102919091010152610d4a6001876115d7565b955050508080610d5990611645565b915050610c84565b509350610f1792505050565b80871115610db3576040805160008082526020820190925281610da6565b610d9361137f565b815260200190600190039081610d8b5790505b509450610f179350505050565b6000610dbf828861160f565b610dc9908561162e565b67ffffffffffffffff811115610def57634e487b7160e01b600052604160045260246000fd5b604051908082528060200260200182016040528015610e2857816020015b610e1561137f565b815260200190600190039081610e0d5790505b5090506000610e37888a61160f565b90505b87610e45818b61160f565b610e4f91906115d7565b81108015610e5c57508481105b15610d61576000610e6e8260016115d7565b600081815260026020818152604092839020835160a0810185528154815260018201546001600160a01b0390811693820193909352928101549383019390935260038301541660608201526004820154608082015285519293509091859088908110610eea57634e487b7160e01b600052603260045260246000fd5b6020908102919091010152610f006001876115d7565b955050508080610f0f90611645565b915050610e3a565b949350505050565b60026000541415610f425760405162461bcd60e51b8152600401610128906115a0565b60026000818155828152602082905260409020600481015491015434821115610fd5576040805162461bcd60e51b81526020600482015260248101919091527f506c65617365207375626d6974207468652061736b696e67207072696365206960448201527f6e206f7264657220746f20636f6d706c657465207468652070757263686173656064820152608401610128565b6000838152600260205260408082206003015490516001600160a01b03909116913480156108fc02929091818181858888f1935050505015801561101d573d6000803e3d6000fd5b506040516323b872dd60e01b8152306004820152336024820152604481018290526001600160a01b038516906323b872dd90606401600060405180830381600087803b15801561106c57600080fd5b505af1158015611080573d6000803e3d6000fd5b5085925050505b6001548110156112d557600081815260026020819052604082206001808201548284015460038401546004909401546001600160a01b039283169691959290941693926110d59088906115d7565b815260208082019290925260409081016000908120600190810154898352600294859052928220810180546001600160a01b0319166001600160a01b0390941693909317909255906111289088906115d7565b81526020019081526020016000206002015460026000878152602001908152602001600020600201819055506002600086600161116591906115d7565b8152602080820192909252604090810160009081206003908101548983526002948590529282200180546001600160a01b0319166001600160a01b03909316929092179091556111b68760016115d7565b815260200190815260200160002060040154600260008781526020019081526020016000206004018190555083600260008760016111f491906115d7565b815260200190815260200160002060010160006101000a8154816001600160a01b0302191690836001600160a01b03160217905550826002600087600161123b91906115d7565b815260200190815260200160002060020181905550816002600087600161126291906115d7565b815260200190815260200160002060030160006101000a8154816001600160a01b0302191690836001600160a01b0316021790555080600260008760016112a991906115d7565b8152602001908152602001600020600401819055505050505080806112cd90611645565b915050611087565b506112e06001611328565b6003546004546040516001600160a01b039092169181156108fc0291906000818181858888f1935050505015801561131c573d6000803e3d6000fd5b50506001600055505050565b8054806113775760405162461bcd60e51b815260206004820152601b60248201527f436f756e7465723a2064656372656d656e74206f766572666c6f7700000000006044820152606401610128565b600019019055565b6040518060a001604052806000815260200160006001600160a01b031681526020016000815260200160006001600160a01b03168152602001600081525090565b80356001600160a01b03811681146113d757600080fd5b919050565b600080604083850312156113ee578182fd5b6113f7836113c0565b946020939093013593505050565b600080600060608486031215611419578081fd5b611422846113c0565b95602085013595506040909401359392505050565b6000806000806080858703121561144c578081fd5b843567ffffffffffffffff80821115611463578283fd5b818701915087601f830112611476578283fd5b81358181111561148857611488611676565b604051601f8201601f19908116603f011681019083821181831017156114b0576114b0611676565b816040528281528a60208487010111156114c8578586fd5b8260208601602083013791820160209081019590955250989287013597505050604085013594606001359350915050565b60008060006060848603121561150d578283fd5b505081359360208301359350604090920135919050565b602080825282518282018190526000919060409081850190868401855b8281101561159357815180518552868101516001600160a01b03908116888701528682015187870152606080830151909116908601526080908101519085015260a09093019290850190600101611541565b5091979650505050505050565b6020808252601f908201527f5265656e7472616e637947756172643a207265656e7472616e742063616c6c00604082015260600190565b600082198211156115ea576115ea611660565b500190565b60008261160a57634e487b7160e01b81526012600452602481fd5b500490565b600081600019048311821515161561162957611629611660565b500290565b60008282101561164057611640611660565b500390565b600060001982141561165957611659611660565b5060010190565b634e487b7160e01b600052601160045260246000fd5b634e487b7160e01b600052604160045260246000fdfea2646970667358221220c0e397d96dd9262bf2a9ab4422adede6f6cf8256160ba4c78b32ba2740ea860464736f6c63430008040033",
  "linkReferences": {},
  "deployedLinkReferences": {}
}